:100000000C94D9000C94E4040C94BD040C94960454
:100010000C946F040C9401010C9401010C9448049D
:100020000C9401010C9401010C940B050C947D05BA
:100030000C9401010C9401010C9401010C94010138
:100040000C9401010C94E9080C9401010C94010139
:100050000C9401010C9401010C9401010C94FE0319
:100060000C9401010C9401010C9401010C94010108
:100070000C9401010C9401010C9401010C940101F8
:100080000C94BB070C9401010C9401010C94010128
:100090000C9401010C9401010C9401010C940101D8
:1000A0000C9401010C940E080C9401016E01710175
:1000B000600164016A019201920192017501790166
:1000C0007D018301870192018D0100000000230062
:1000D000260029002C002F00080B0002020201005C
:1000E000090400000102020000052400100105249B
:1000F000010101042402060524060001070581030D
:1001000010004009040100020A0000000705020275
:1001100040000007058302400000040309041201A7
:100120000002EF0201404F1B08920001010203018F
:10013000537061726B46756E004C696C79506164E6
:10014000205553420000000000250028002B002EFF
:100150000031000404040404030405020202020442
:100160000302020202060606060606040402020252
:1001700004040408020110408040102040804080A8
:10018000080204018040201002011080102040402D
:10019000200000000200090F0000030401000C0011
:1001A000000000000000000000000000000000004F
:1001B000E60911241FBECFEFDAE0DEBFCDBF11E0AC
:1001C000A0E0B1E0E0E1F4E102C005900D92A033BF
:1001D000B107D9F722E0A0E3B1E001C01D92AF3A28
:1001E000B207E1F710E0C9EDD0E004C02197FE01AD
:1001F0000E94FB09C83DD107C9F70E944D090C9424
:10020000060A0C9400002091AE02211103C08FEF6A
:100210009FEF08955FB7F89422E02093E9002091C2
:10022000F20030E01216130614F421E030E0422F01
:10023000FC0184E6415038F028988093AD029091FB
:10024000F1009193F7CF2115310521F08091F20053
:10025000882319F05FBFC90108958BE68093E800F9
:10026000F9CF2FB7F89483E08093E9009091E800EC
:10027000892F807295FF04C09091F20080E4891B61
:100280002FBF08958091A50281110DC082E0809357
:10029000A10284E08093A2021092A4021092A30211
:1002A00081E08093A50281EA92E0089590E0FC014C
:1002B0003197EF30F105B0F5EA5AFF4F0C94FB0986
:1002C000809180008F7703C0809180008F7D809324
:1002D0008000089580918000877FF9CF84B58F7763
:1002E00002C084B58F7D84BD0895809190008F7782
:1002F00007C0809190008F7D03C080919000877F20
:100300008093900008958091C0008F7703C0809102
:10031000C0008F7D8093C00008958091C200877FC8
:100320008093C20008951F93CF93DF93282F30E06E
:10033000F901EF56FE4F8491F901EE58FE4FD4912A
:10034000F901ED5AFE4FC491CC23C1F0162F811153
:100350000E945601EC2FF0E0EE0FFF1FEB5BFE4F0B
:10036000A591B4919FB7F894111104C08C91D095C8
:10037000D82302C0EC91DE2BDC939FBFDF91CF919D
:100380001F9108953FB7F89480919D0290919E022D
:10039000A0919F02B091A00226B5A89B05C02F3F57
:1003A00019F00196A11DB11D3FBFBA2FA92F982F9B
:1003B0008827820F911DA11DB11DBC01CD0143E015
:1003C000660F771F881F991F4A95D1F70895CF921E
:1003D000DF92EF92FF920E94C2016B017C010E94AA
:1003E000C201DC01CB018C199D09AE09BF09883E11
:1003F0009340A105B10598F3FF90EF90DF90CF9067
:100400000895089540919202509193022091900294
:100410003091910242175307B4F49091E80095701F
:10042000E1F39091E80092FD19C08093F100809172
:1004300092029091930201968F739927892B19F458
:100440008EEF8093E8008091920290919302019642
:10045000909393028093920281E0089580E0089542
:10046000DF92EF92FF920F931F93CF93DF93D82EDB
:10047000F92EE42E062F10E0C8010196880F0E9485
:10048000020283E00E940202CD2DDF2D0C0F1D1F02
:10049000C017D10789F0E7FE03C0FE01849101C0B7
:1004A00088810E940202F82E80E00E9402028F21C1
:1004B00021968111EDCF01C081E0DF91CF911F9195
:1004C0000F91FF90EF90DF900895DF92EF92FF92EF
:1004D0000F931F93CF93DF93D82E8A017B01E40EF5
:1004E000F51EEB01CE15DF0571F0D7FE03C0FE014E
:1004F000849101C088810E94020221968111F2CF6D
:100500008FEF9FEF01C0C801DF91CF911F910F9135
:10051000FF90EF90DF9008950F931F93CF93DF9399
:100520001F92CDB7DEB782E0898342E450E068EDE8
:1005300070E080E80E9465020E944201DC01129690
:100540000D911C9113970115110589F0D801ED91BA
:10055000FC910280F381E02DBE016F5F7F4FC801E7
:10056000099597FD04C0F80100851185ECCF8981BC
:100570000F90DF91CF911F910F910895615030F04E
:100580002091F100FC0120830196F8CF289884E6A1
:100590008093AD020895CF92DF92EF92FF920F9376
:1005A0001F93CF93DF936C017A018B01C0E0D0E001
:1005B000CE15DF0581F0D8016D918D01D601ED9149
:1005C000FC910190F081E02DC6010995892B11F075
:1005D0002196EECF7E01C701DF91CF911F910F9140
:1005E000FF90EF90DF90CF9008958F929F92AF92FF
:1005F000BF92CF92DF92EF92FF920F931F93CF9310
:10060000DF936C017B018A0180910B01882309F43F
:1006100058C08091AE02882309F453C0809196029D
:1006200080FF05C08091E00082608093E000E801D7
:10063000B12C8AEFA82E93E0892E2AE3922E2097E0
:1006400011F4BB20B9F10E943101811106C0AA94B6
:10065000AA20B9F10E94E701F2CF282F30E0C2179B
:10066000D3070CF48C2F9FB7F8948092E900209167
:10067000E80025FF1DC0282F30E0C21BD30BF70177
:10068000815020F041914093F100FACFE20EF31E29
:10069000BB2019F09092E8000AC08091E80085FD27
:1006A00007C09092E800BB24B394209709F0B12CC6
:1006B0009FBFC5CF5D9884E6809395021016110602
:1006C00044F081E090E0F6019383828380E090E043
:1006D00001C0C801DF91CF911F910F91FF90EF9062
:1006E000DF90CF90BF90AF909F908F900895CF9361
:1006F000DF931F92CDB7DEB76983DC01ED91FC91EA
:100700000280F381E02D41E050E0BE016F5F7F4F3A
:1007100009950F90DF91CF91089583E08093E900D0
:100720008091F200882319F08AE38093E80008950D
:100730000E94310190E00895CF93DF931F92CDB7CF
:10074000DEB7FC018485958597FD05C02FEF3FEF4F
:10075000358724870BC0CE0101960E9403010197C3
:1007600019F4898190E002C08FEF9FEF0F90DF9125
:10077000CF9108950F931F93CF93DF931F92CDB71F
:10078000DEB78C01FC018485958597FF0EC0CE01F4
:1007900001960E940301019719F4898190E002C03B
:1007A0008FEF9FEFF80195878487F8018485958501
:1007B0000F90DF91CF911F910F910895FC018485D7
:1007C000958597FD0BC09FB7F89482E08093E90070
:1007D0008091F2009FBF90E0019608959FB7F89432
:1007E00082E08093E9008091F2009FBF90E008953D
:1007F000089580E090E008950E94010A1F920F92F0
:100800000FB60F9211242F933F938F939F93AF9323
:10081000BF938091990290919A02A0919B02B0910E
:100820009C023091980226E0230F2D3720F4029687
:10083000A11DB11D05C029E8230F0396A11DB11DFF
:10084000209398028093990290939A02A0939B021E
:10085000B0939C0280919D0290919E02A0919F0274
:10086000B091A0020196A11DB11D80939D029093AD
:100870009E02A0939F02B093A002BF91AF919F915F
:100880008F913F912F910F900FBE0F901F90189551
:100890001F920F920FB60F9211242F933F934F93F5
:1008A0005F936F937F938F939F93AF93BF93EF93D8
:1008B000FF93E0911401F09115010995FF91EF91DB
:1008C000BF91AF919F918F917F916F915F914F9168
:1008D0003F912F910F900FBE0F901F9018951F9270
:1008E0000F920FB60F9211242F933F934F935F9364
:1008F0006F937F938F939F93AF93BF93EF93FF93E8
:10090000E0911201F09113010995FF91EF91BF91D0
:10091000AF919F918F917F916F915F914F913F9197
:100920002F910F900FBE0F901F9018951F920F924E
:100930000FB60F9211242F933F934F935F936F93B2
:100940007F938F939F93AF93BF93EF93FF93E09128
:100950001001F09111010995FF91EF91BF91AF91B5
:100960009F918F917F916F915F914F913F912F91C7
:100970000F900FBE0F901F9018951F920F920FB6F9
:100980000F9211242F933F934F935F936F937F9315
:100990008F939F93AF93BF93EF93FF93E0910E01DB
:1009A000F0910F010995FF91EF91BF91AF919F9148
:1009B0008F917F916F915F914F913F912F910F9008
:1009C0000FBE0F901F9018951F920F920FB60F92A7
:1009D00011242F933F934F935F936F937F938F9344
:1009E0009F93AF93BF93EF93FF93E0910C01F0912E
:1009F0000D010995FF91EF91BF91AF919F918F915B
:100A00007F916F915F914F913F912F910F900FBE0A
:100A10000F901F9018951F920F920FB60F921124EE
:100A20008F939F938091E1009091E100937F909349
:100A3000E10083FF0FC01092E90091E09093EB007A
:100A40001092EC0092E39093ED001092AE0298E0C9
:100A50009093F00082FF20C093E09093E900909182
:100A6000F200992319F09AE39093E800909195028F
:100A7000992339F090919502915090939502992382
:100A800089F19091AD02992339F09091AD02915086
:100A90009093AD02992341F184FF10C08091E20050
:100AA0008E7E81608093E2008091E1008F7E809352
:100AB000E100809196028E7E806111C080FF16C099
:100AC0008091E2008E7E80618093E2008091E1005F
:100AD0008E7E8093E100809196028E7E816080936D
:100AE000960204C05D9ACDCF289AD6CF9F918F9160
:100AF0000F900FBE0F901F9018951F920F920FB678
:100B00000F921124CF92DF92EF92FF920F931F93D7
:100B10002F933F934F935F936F937F938F939F9305
:100B2000AF93BF93EF93FF93CF93DF93CDB7DEB730
:100B30006C97DEBFCDBF1092E9008091E80083FF83
:100B4000FBC168E0CE0145960E94BE0282EF809311
:100B5000E8008D8987FF05C09091E80090FFFCCFE9
:100B600003C09EEF9093E800982F907609F0C6C0DE
:100B70009E894F89588D2F89F88C91110CC080382F
:100B800029F4809197028093F10002C01092F10045
:100B90001092F10045C1913051F4811141C14130B1
:100BA000510509F03DC1809197028D7F0BC09330B4
:100BB00061F4811135C14130510509F031C1809195
:100BC00097028260809397022BC1953049F48091FF
:100BD000E80080FFFCCF822F80688093E30020C173
:100BE000963009F05EC00B8D1C8D22E01092E9005A
:100BF0001092930210929202F21232C0109291025D
:100C0000109290020E948C0299E0BE016F5F7F4FAC
:100C1000DB01E92F1D92EA95E9F79983FA8291E0C9
:100C20009E8390EA98879AEF99872091920230915B
:100C30009302275F3F4F3C832B838D831092E90003
:100C400010929302109292021093910200939002DC
:100C500049E050E080E00E9465020E948C02E0C002
:100C600010939102009390020E944201DC011296BF
:100C70000D911C9113970115110509F4BBC0D80102
:100C8000ED91FC910480F581E02DBE016B5E7F4FFC
:100C9000C8010995009709F0C7C0F80100851185C2
:100CA000EACF973009F445C1983021F481E0809370
:100CB000F100B6C0993009F0B3C0837009F039C1B2
:100CC000E9E2F1E081E031E096E32081211109C001
:100CD0008EE78093EA001092EA008F898093AE023B
:100CE0009FC08093E9003093EB0021912093EC00AA
:100CF0009093ED008F5F873041F7EACF8B8D9C8D0D
:100D00001092E90010929302109292029093910235
:100D100080939002898D811153C08E899D89913A6B
:100D200049F4813209F005C147E050E064E071E028
:100D300080E0BBC0913209F0FCC0833269F48F8936
:100D4000988DA0E0B0E08093000190930101A09302
:100D50000201B093030164C0803269F48091E8001D
:100D600082FFFCCF67E084E091E00E94BE028BEF3F
:100D70008093E80055C0823209F052C08F89809379
:100D80000B01EEEFFFE7859194918B3F9C4D19F09D
:100D9000E0E0F8E002C0EEEFFAE08091040190910B
:100DA0000501A0910601B0910701803B9440A10587
:100DB000B10509F09EC080910B0180FF79C099C0F8
:100DC0000E944201FC01028113810115110509F401
:100DD000B0C0D801ED91FC910190F081E02DBE01F1
:100DE0006B5E7F4FC801099581111AC0F80100851B
:100DF0001185EBCFF1E0FF1609F44EC0F3E0FF12CE
:100E000098C08F89882309F44AC0823089F440E869
:100E10006BE089E391E00E943002882309F489C0E5
:100E20008EEF8093E80088C018161906CCF381C0B5
:100E3000813029F440E868E080E391E0ECCF833032
:100E400009F077C00E944201DC011296ED90FC90FF
:100E500013978E010F5F1F4F6801E114F10479F0C1
:100E6000D701ED91FC910680F781E02DB801C70113
:100E70000995080F111DF701E084F184EECFD80128
:100E80001C92F60101900020E9F73197BF016C191F
:100E90007D0940E0C601BFCF6EE171E002C06AE1AA
:100EA00071E0FB01449150E080E80E946502B8CFF8
:100EB000EE3F2AE0F20751F0808191818737A7E762
:100EC0009A0721F09093FF0A8093FE0A87E797E73D
:100ED0009183808380916000809394029BE088E1FD
:100EE0000FB6F894A895809360000FBE90936000B1
:100EF00097CF808191818737974709F091CFA89547
:100F0000809160008861809360008091940280935A
:100F10006000EE3FBAE0FB0739F08091FE0A909145
:100F2000FF0A918380837CCF1092FF0A1092FE0A01
:100F300077CF81E28093EB006C960FB6F894DEBF1A
:100F40000FBECDBFDF91CF91FF91EF91BF91AF91D8
:100F50009F918F917F916F915F914F913F912F91D1
:100F60001F910F91FF90EF90DF90CF900F900FBEE9
:100F70000F901F9018951F920F920FB60F92112489
:100F80008F939F93AF93BF9380918C0290918D022A
:100F9000A0918E02B0918F02892B8A2B8B2B41F16D
:100FA00090918B02809100008927809300008091AE
:100FB0008C0290918D02A0918E02B0918F02181632
:100FC00019061A061B060CF580918C0290918D0271
:100FD000A0918E02B0918F020197A109B10980936F
:100FE0008C0290938D02A0938E02B0938F020DC05D
:100FF000809171008D7F8093710080918B02909120
:1010000000008095892380930000BF91AF919F914C
:101010008F910F900FBE0F901F9018951F920F92F7
:101020000FB60F9211242F933F934F935F936F93BB
:101030007F938F939F93AF93BF93CF93DF93EF9360
:10104000FF9320916A0130E0F901EF56FE4F849141
:10105000F901EE58FE4FD491F901ED5AFE4FC491BB
:10106000CC2379F081110E945601EC2FF0E0EE0FB5
:10107000FF1FE653FF4FA591B491EC91ED2381E062
:1010800009F480E020916E0130916F012F5F3F4F96
:1010900030936F0120936E0190916D01953618F099
:1010A00096E090936901909169019430C9F128F418
:1010B000923069F09330D1F05EC0953009F451C0A0
:1010C000963009F058C091E090933A0251C08111D6
:1010D00052C020916E0130916F012436310508F421
:1010E00042C010923A0210926D011CC0813009F08A
:1010F00042C0E0916D0191E09E0F90936D01F0E090
:1011000020916E0130916F01EE0FFF1FE759FE4FE6
:101110003087278310926F0110926E0194E029C0EE
:10112000811117C0E0916D0191E09E0F90936D01C8
:10113000F0E020916E0130916F01EE0FFF1FE75933
:10114000FE4F3087278310926F0110926E0193E05B
:1011500010C020916E0130916F012536310558F095
:1011600007C0811108C010926F0110926E0103C078
:1011700095E09093690190916C019923B9F08111E8
:101180000AC080916B01882321F080916B0161E09E
:1011900009C02D9A0BC080916B01882331F080919A
:1011A0006B0160E00E94930101C02D98FF91EF91C7
:1011B000DF91CF91BF91AF919F918F917F916F916F
:1011C0005F914F913F912F910F900FBE0F901F9005
:1011D00018951F920F920FB60F9211242F933F93E1
:1011E0008F939F93EF93FF938091680187FF05C0D2
:1011F000109285001092840005C08091680187FDDF
:1012000080916801809168018F5F8093680180916F
:10121000680187FF20C0809168018C30E4F4209140
:1012200084003091850080916801082E000C990B94
:10123000FC01EE0FFF1F8E0F9F1FFC01EC5BFE4FAA
:1012400081819281820F931F9093890080938800FF
:101250008091680117C08091840090918500049668
:1012600080329E4418F480E29EE405C080918400A0
:1012700090918500049690938900809388008FEF69
:1012800080936801FF91EF919F918F913F912F91F2
:101290000F900FBE0F901F901895789484B58260C0
:1012A00084BD84B5816084BD85B5826085BD85B50A
:1012B000816085BD80916E00816080936E00109288
:1012C0008100809181008260809381008091810003
:1012D0008160809381008091800081608093800094
:1012E0008091910082608093910080919100816053
:1012F0008093910080919000816080939000809114
:10130000C10084608093C1008091C100826080939D
:10131000C1008091C10081608093C1008091C300B1
:1013200081608093C3008091C00082608093C00080
:101330008091C20081608093C20080917A008460B5
:1013400080937A0080917A00826080937A00809105
:101350007A008E7F80937A0080917A0080688093F3
:101360007A001092AE02109297021092960280912B
:10137000D70081608093D70080EA8093D80089B538
:101380008F7E89BD89B5826089BD09B400FEFDCF1D
:101390000E94E7018091D8008F7C80618093D80003
:1013A0008091E000807F8093E0008091E1008E7E5C
:1013B0008093E1008DE08093E200559A209AC0E08E
:1013C000D0E02097F1F30E940000FBCFEBE3F2E0C6
:1013D0001382128288EE93E0A0E0B0E084839583CC
:1013E000A683B7838AE191E0918380838FEF9FEF9B
:1013F000958784870895EE0FFF1F0590F491E02DE7
:10140000099481E090E0F8940C94060AF894FFCFD8
:10141000FFFFFFFF00E100000000000001020102E9
:10142000010201020102000000007703F5029803A7
:101430008D03DE039C03BA0300C18081000000001D
:00000001FF
